:020000040800F2
:1000000000000220E91E00082D1F00082D1F000817
:100010002D1F00082D1F00082D1F000800000000E4
:100020000000000000000000000000002D1F00087C
:100030002D1F0008000000002D1F00082D1F0008C4
:100040002D1F00082D1F00082D1F00082D1F000860
:100050002D1F00082D1F00082D1F00082D1F000850
:100060002D1F00082D1F00082D1F00082D1F000840
:100070002D1F00082D1F00082D1F00082D1F000830
:100080002D1F00082D1F00082D1F00082D1F000820
:100090002D1F00082D1F00082D1F00082D1F000810
:1000A0002D1F00082D1F00082D1F00082D1F000800
:1000B0002D1F00082D1F00082D1F00082D1F0008F0
:1000C0002D1F00082D1F00082D1F00082D1F0008E0
:1000D0002D1F00082D1F00082D1F00082D1F0008D0
:1000E0002D1F00082D1F00082D1F00082D1F0008C0
:1000F0002D1F00082D1F00082D1F00082D1F0008B0
:100100002D1F00082D1F00082D1F00082D1F00089F
:100110002D1F00082D1F00082D1F00082D1F00088F
:100120002D1F00082D1F00082D1F00082D1F00087F
:100130002D1F00082D1F00082D1F00082D1F00086F
:100140002D1F00082D1F00082D1F00082D1F00085F
:100150002D1F00082D1F00082D1F00082D1F00084F
:100160002D1F00082D1F00082D1F00082D1F00083F
:100170002D1F00082D1F00082D1F00082D1F00082F
:080180002D1F00082D1F0008CF
:1001880082B00190019B5A1E0192002BFAD102B055
:10019800704700BF10B546F24004C4F2020490B0A4
:1001A800204601F0D9FB4FF48863C4F200030293A0
:1001B80040F22403C2F200030393402304934FF454
:1001C80002730593002306934FF4806307934FF45B
:1001D800006308934FF4005309934FF4807301A907
:1001E80020460A934FF400330B9301F0A9FC2046F4
:1001F800012101F001FD10B010BD00BF4FF46053A4
:10020800C4F202030022196841F0010119609A60E2
:10021800186843F2100120F08470C2F2004120F403
:10022800803018605960196882B021F48021196003
:10023800DA60009201921A6842F480321A601A4613
:1002480003E0009BB3F5A06F09D0136803F40033F3
:100258000193009B01330093019B002BF1D04FF4D5
:100268006053C4F202031B6813F4003308BF019300
:1002780001D001230193019B012B1DD04FF4605243
:10028800C4F202024FF440539168C5F2000321F40E
:1002980000019160C2F88430136843F080631360F2
:1002A80013681B01FCD54FF46D43CEF200034FF0E9
:1002B80000629A6002B070474FF46053C4F20203C0
:1002C8004FF4E042196CC4F2000241F08051196405
:1002D800116841F4804111609A689A609A6842F402
:1002E80000429A60996845F2084241F4A051C0F270
:1002F800407299605A601A6842F080721A60194612
:100308000A684FF460539201C4F20203F8D54FF41F
:100318007052C4F2020240F2056111609A6822F03C
:1003280003029A609A6842F002029A609A6802F0A0
:100338000C02082AFAD1A1E74FF46053C4F2020371
:100348009A6802F00C02042A04BF4FF49051C0F2DC
:100358007A0106D0082A1CBF4FF41051C0F2F401EC
:100368000BD04FF46052C4F20202154B9268C2F3EC
:1003780003129A5CD1401961704758685A6810F4A2
:10038800800F586815BF4FF490534FF41053C0F2C4
:100398007A03C0F2F40302F03F02B3FBF2F14FF428
:1003A8006053C4F20203C0F388105B68C3F30143CF
:1003B800013301FB00F15B00B1FBF3F1D1E700BFB2
:1003C8000000002008B50023C4F2020398423CD084
:1003D8004FF48063C4F20203984240D04FF40063A4
:1003E800C4F20203984244D04FF44063C4F20203BB
:1003F800984248D04FF48053C4F2020398424CD03C
:100408004FF4A053C4F20203984250D04FF4C053A3
:10041800C4F20203984254D04FF4E053C4F20203EA
:10042800984258D04FF40053C4F20203984200D0C7
:1004380008BD01214FF4807000F0AEFA4FF48070CF
:100448000021BDE8084000F0A7BA0120014600F0ED
:10045800A3FA01200021BDE8084000F09DBA02205F
:10046800012100F099FA02200021BDE8084000F0BF
:1004780093BA0420012100F08FFA04200021BDE87E
:10048800084000F089BA0820012100F085FA082008
:100498000021BDE8084000F07FBA1020012100F0DB
:1004A8007BFA10200021BDE8084000F075BA202032
:1004B800012100F071FA20200021BDE8084000F079
:1004C8006BBA4020012100F067FA40200021BDE806
:1004D800084000F061BA8020012100F05DFA802018
:1004E8000021BDE8084000F057BA00BF00232DE9FD
:1004F800F0070A681C4601274FF0030803E001349F
:100508000233102C2BD017FA04F505EA0206AE4286
:10051800F5D1D0F8009091F804C008FA03F5ED433E
:1005280005EA0909C0F80090D0F800900CFA03FA1F
:100538000CF1FF3C4AEA0909BCF1010FC0F8009030
:1005480010D9C66891F807C03540C560C6680CFA6E
:1005580003F5013435430233102CC560D3D1BDE80F
:10056800F0077047D0F808A091F8059091F806C0F8
:1005780005EA0A0AC0F808A0D0F808A009FA03F9A1
:1005880049EA0A09C0F80890D0F8049029EA060652
:10059800466046680CFA04FC1FFA8CFC4CEA060616
:1005A8004660CEE74FF6FF72002380E80C007047E4
:1005B80082B04FF480330193019B0B430193019B5D
:1005C800C361C161019BC361C3690193C36901939D
:1005D80002B07047036919420CBF00200120704720
:1005E800006980B2704700BF436919420CBF002000
:1005F80001207047406980B2704700BF018370478F
:10060800418370470AB9418370470183704700BF2F
:100618004161704743694B4043617047CB080833D9
:1006280001F0070130B4890050F823500F248C40A2
:1006380025EA040440F8234050F8234012FA01F157
:100648000C4340F8234030BC704700BF4FF4605360
:10065800C4F202030022196841F0010119609A608E
:10066800186843F2100120F08470C2F2004120F4AF
:10067800803018605960196821F480211960DA60A7
:10068800704700BF43F60203C4F2020300221A7047
:100698001870704782B04FF4605100230193C4F280
:1006A80002010A68019B01330193019BB3F5A06F16
:1006B80001D09303F5D54FF46053C4F202031868D0
:1006C800C0F3404002B070474FF46053C4F20203D5
:1006D8001A6822F0F80242EAC0021A60704700BFA6
:1006E8000023C4F247231860704700BF43F6700325
:1006F800C4F20203002201281A701A7004D00428D8
:1007080001D105221A707047187070474FF468635A
:10071800C4F2472318607047014341EA82120099E6
:100728005B084FF4605042EA0162013BC4F20200E8
:1007380042EA0342426070476023C4F247231860CC
:10074800704700BF4FF460538001C4F2020340EACF
:100758000171C3F8841070476823C4F247231860F6
:10076800704700BF4C23C4F247231860704700BF8E
:100778004FF46053C4F202039A6822F0EC62024319
:100788000A439A60704700BF4FF46053C4F20203F3
:100798009A6822F0784202430A439A60704700BF81
:1007A8004FF46053C4F202039A6822F00302024332
:1007B8009A6070474FF46053C4F20203986800F0DF
:1007C8000C0070474FF46053C4F202039A6822F099
:1007D800F00202439A6070474FF46053C4F2020378
:1007E8009A6822F4E05202439A6070474FF46053CB
:1007F800C4F202039A6822F4604242EAC0029A6094
:10080800704700BF4FF46053C4F2020310B49A68F3
:1008180002F00C02042A02BF4FF49052C0F27A028E
:10082800026006D0082A1ED04FF41052C0F2F4021B
:1008380002604FF46053C4F202031C499C68C4F37D
:1008480003140C5DE24042609C68C4F382240C5D92
:1008580032FA04F484609B68C3F34233CB5CDA4019
:10086800C26010BC70475C68596814F4800F5C68FB
:1008780015BF4FF490534FF41053C0F27A03C0F2EF
:10088800F40301F03F01B3FBF1F24FF46053C4F2FB
:100898000203C4F388145B68C3F30143013302FB0A
:1008A80004F25B00B2FBF3F20260C2E7140000201E
:1008B80000F44073B3F5407F0CD14FF46053C4F299
:1008C800020320F070419A6821F4407122F4F81272
:1008D8000A439A604FF46053C4F2020300051A6F8A
:1008E800000D10431867704740F63C63C4F2472375
:1008F800186070474FF46463C4F247231860704768
:100908004FF4AE73C4F24723186070474FF4605336
:10091800C4F202031A6B19B922EA0000186370477F
:1009280010431863704700BF4FF46053C4F20203CA
:100938005A6B19B922EA000058637047104358638C
:10094800704700BF4FF46053C4F202039A6B19B9A1
:1009580022EA00009863704710439863704700BF0D
:100968004FF46053C4F202031A6C19B922EA00006A
:100978001864704710431864704700BF4FF4605301
:10098800C4F202035A6C19B922EA0000586470478D
:1009980010435864704700BF4FF46053C4F2020319
:1009A8001A6919B922EA00001861704710431861E2
:1009B800704700BF4FF46053C4F202035A6919B973
:1009C80022EA00005861704710435861704700BF21
:1009D8004FF46053C4F202039A6919B922EA00007D
:1009E8009861704710439861704700BF4FF4605397
:1009F800C4F202031A6A19B922EA000018627047A1
:100A080010431862704700BF4FF46053C4F20203EA
:100A18005A6A19B922EA00005862704710435862AE
:100A2800704700BF4FF46053C4F202031A6D19B93E
:100A380022EA00001865704710431865704700BF28
:100A48004FF46053C4F202035A6D19B922EA000048
:100A58005865704710435865704700BF4FF460539E
:100A6800C4F202039A6D19B922EA0000986570472A
:100A780010439865704700BF4FF46053C4F20203F7
:100A88001A6E19B922EA00001866704710431866F2
:100A9800704700BF4FF46053C4F202035A6E19B98D
:100AA80022EA00005866704710435866704700BF36
:100AB80043F60D03C4F202031A7819B922EA0000BA
:100AC8001870704710431870704700BF4309012B16
:100AD8000ED0022B4FF46053C4F202030CBF1B6FFD
:100AE8005B6F00F01F0033FA00F000F00100704760
:100AF8004FF46053C4F202031B68F2E74FF46053EB
:100B0800C4F202035A6F42F080725A67704700BFFE
:100B18004FF46053C4F20203DB6818420CBF002094
:100B28000120704743F60E03C4F2020318707047A1
:100B380008B50023C4F2010398425BD0B0F1804F9E
:100B480062D04FF48063C4F20003984266D04FF439
:100B58000063C4F2000398426AD04FF44063C4F2C1
:100B6800000398426ED04FF48053C4F200039842B9
:100B780072D04FF4A053C4F20003984276D04FF4D9
:100B88008063C4F2010398427AD04FF48043C4F2E0
:100B9800010398427ED04FF48843C4F2010398427F
:100BA80000F084804FF49043C4F20103984200F0AF
:100BB80089804FF4C053C4F20003984200F08E803D
:100BC8004FF4E053C4F20003984200F091804FF4D0
:100BD8000053C4F20003984200D008BD01214FF42D
:100BE8008070FFF703FF4FF480700021BDE80840D4
:100BF800FFF7FCBE01200146FFF706FF0120002198
:100C0800BDE80840FFF700BF01200146FFF7EEFEF0
:100C180001200021BDE80840FFF7E8BE02200121BD
:100C2800FFF7E4FE02200021BDE80840FFF7DEBE22
:100C380004200121FFF7DAFE04200021BDE8084066
:100C4800FFF7D4BE08200121FFF7D0FE08200021BD
:100C5800BDE80840FFF7CABE10200121FFF7C6FE15
:100C680010200021BDE80840FFF7C0BE2020012168
:100C7800FFF7BCFE20200021BDE80840FFF7B6BE04
:100C880002200121FFF7C0FE02200021BDE8084034
:100C9800FFF7BABE01214FF48030FFF7B5FE4FF4DD
:100CA80080300021BDE80840FFF7AEBE01214FF4B7
:100CB8000030FFF7A9FE4FF400300021BDE80840DE
:100CC800FFF7A2BE01214FF48020FFF79DFE4FF4ED
:100CD80080200021BDE80840FFF796BE4020012192
:100CE800FFF784FE40200021BDE80840FFF77EBEE4
:100CF80080200121FFF77AFE80200021BDE808400E
:100D0800FFF774BE00234FF48062C4F2010370B48D
:100D1800C4F201020488984218BF9042A4B214BFDA
:100D28000023012308D04FF48062C4F20002B0F11E
:100D3800804F18BF904223D14FF68F754A882540BF
:100D480045EA02044FF4A0564FF48055C4F200055A
:100D5800C4F20006B04218BFA8421FBF0D894FF663
:100D6800FF42224042EA05044D680A880480C562B1
:100D780002850BB18B7A03860123838270BC70478E
:100D88004FF440654FF40062C4F20005C4F200025B
:100D9800904218BFA842D5D1CEE700BF00234FF03C
:100DA800FF3141600380038143808372704700BF35
:100DB80001858282704700BF038823F070031B04FB
:100DC8001B0C0B430380704741627047C162704738
:100DD800406A7047008D80B2704700BF038829B908
:100DE80023F002031B041B0C038070479BB243F0E3
:100DF80002030380704700BF038829B923F0040366
:100E08001B041B0C038070479BB243F00403038050
:100E1800704700BF038829B923F080031B041B0C0B
:100E2800038070479BB243F080030380704700BF84
:100E3800038823F008031B041B0C038003889BB260
:100E48000B430380704700BF038823F440731B04DF
:100E58001B0C038003889BB20B430380704700BFC1
:100E6800038829B923F001031B041B0C0380704776
:100E78009BB243F001030380704700BF2DE9F001E6
:100E8800048C8D894F88B1F800C024F00104240433
:100E9800240C0484038C8488028B2F4323F00203E0
:100EA800002522F073024FF4806612041B04C4F27A
:100EB8000106C4F20105120C1B0CBFB2A84218BFF0
:100EC800B042A4B242EA0C0247EA030316D14FF635
:100ED800F775B1F80EC0B1F812800F8A8E881D40E0
:100EE80045EA0C0C4FF6FB734FF6FF4548EA070737
:100EF80025400CEA0303BCB233432C438968848041
:100F0800028341630384BDE8F00170472DE9F003D3
:100F1800048C8D89B1F800C04F8824F01004240493
:100F2800240C0484028C8488038B22F0200212048F
:100F3800120C23F4E6431B0442EA05124FF48066C0
:100F480000251B0CC4F20106C4F2010543EA0C2378
:100F580042EA0712A84218BFB042A4B29BB292B2AA
:100F680019D14FF67F76B1F80E90B1F81080B1F82C
:100F780004C04F8A16404FF2FF35254046EA09164D
:100F88004FF6BF72324045EA880442EA0C1244EA3E
:100F9800870492B2A4B2896884800383816302843F
:100FA800BDE8F003704700BF2DE9F003048C8D897C
:100FB800B1F802C00F8824F480742404240C04843B
:100FC800028C8488838B22F400721204120C42EA89
:100FD800052223F0730300254FF480661B04C4F236
:100FE8000106C4F201051B0C42EA0C22A84218BFF4
:100FF800B042A4B243EA070392B219D14FF2FF7686
:10100800B1F80E90B1F81080B1F804C04F8A1640BC
:101018004CF6FF75254046EA09264FF6FF32324066
:1010280045EA081442EA0C2244EA071492B2A4B230
:10103800896884808383C1630284BDE8F0037047B4
:10104800F0B4048C8D89B1F800C04F8824F4805422
:101058002404240C0484028C8488838B22F4005298
:101068001204120C42EA053223F4E64300254FF439
:101078008066C4F20105C4F201061B041B0CA842D9
:1010880018BFB04208BF0E8A8968A4B202BF4BF6E7
:10109800FF75254045EA861443EA0C2342EA0732E5
:1010A8009BB292B208BFA4B2848083830164028495
:1010B800F0BC704700230380438083808360838172
:1010C800C38103824382704710B4048C01238B4090
:1010D800A4B224EA030303841830002918BF08299E
:1010E8000ED00439C1F34E0148F6FF730C58234063
:1010F8000B5012020B5892B21A430A5010BC704798
:1011080049084FF68F730C5823400B500B581A435D
:101118000A50F3E74163704781637047C1637047C2
:1011280001647047038B23F070031B041B0C0B43F3
:1011380003837047038B23F4E0431B041B0C43EA2F
:1011480001239BB203837047838B23F070031B0436
:101158001B0C0B4383837047838B23F4E0431B04EE
:101168001B0C43EA01239BB283837047038B23F054
:1011780008031B041B0C0B4303837047038B23F4E6
:1011880000631B041B0C43EA01239BB203837047D3
:10119800838B23F008031B041B0C0B4383837047CA
:1011A800838B23F400631B041B0C43EA01239BB2CB
:1011B80083837047038B23F004031B041B0C0B432E
:1011C80003837047038B23F480631B041B0C43EADF
:1011D80001239BB203837047838B23F004031B0412
:1011E8001B0C0B4383837047838B23F480631B049E
:1011F8001B0C43EA01239BB283837047038B23F0C4
:1012080080031B041B0C0B4303837047038B5B0495
:101218005B0C43EA01239BB203837047838B23F063
:1012280080031B041B0C0B4383837047838B5B0475
:101238005B0C43EA01239BB283837047038C23F042
:1012480002031B041B0C0B4303847047038C23F01D
:1012580008031B041B0C0B4303847047038C23F007
:1012680020031B041B0C43EA01139BB20384704741
:10127800038C23F080031B041B0C43EA01139BB26D
:1012880003847047038C23F400731B041B0C43EA8C
:1012980001239BB203847047038C23F400631B046F
:1012A8001B0C43EA01239BB203847047038C23F48D
:1012B80000531B041B0C43EA01339BB203847047A1
:1012C80010B4048C01238B40A4B224EA03030384E2
:1012D800038C12FA01F10B439BB2038410BC7047D4
:1012E80010B4048C04238B40A4B224EA03030384BF
:1012F800038C12FA01F10B439BB2038410BC7047B4
:101308000B88F0B4002B32D0042B58D0082B4E8811
:10131800038C00F082808F880D89CC8823F480515B
:101328000904090C0184828B038C22F4407223F493
:10133800005312055B04120D5B0C42EA072243EAD4
:10134800063342EA05329BB243F4805392B2828359
:101358000384838B23F440631B041B0C8383838BDC
:101368009BB243EA04239BB28383F0BC7047038C8F
:101378004E888D880F89CC8823F001010904090C57
:101388000184028B038C22F0F3021204120C23F066
:101398000A0342EA07121B0492B21B0C46F0010131
:1013A8000B432A4302830384038B23F00C031B049F
:1013B8001B0C0383038B9BB223430383D5E7038C66
:1013C8004E888D880F89CC8823F010010904090CF8
:1013D8000184028B038C22F44072120523F0A003CF
:1013E800120D1B0442EA07321B0C92B243EA0613A1
:1013F80042EA05229BB243F0100392B202830384AF
:10140800038B23F440631B041B0C0383038B9BB2E5
:1014180043EA04239BB20383A7E78D880F89CC880E
:1014280023F480710904090C0184828B038C22F057
:10143800F30223F4206312041B04120C1B0C42EA6F
:10144800071243EA062392B29BB243F480732A43FD
:1014580082830384838B23F00C031B041B0C83837C
:10146800838B9BB2234383837FE700BF0023012242
:10147800038043808280C380038170472DE9F00197
:101488008A88B1F802800B88B8F1000F0CBF0225DA
:101498000025012A14BF4FF480744FF4007414BF60
:1014A8004FF0010C4FF0020C002B52D0038C0F8927
:1014B800CE8823F010031B041B0C0384048B018CBF
:1014C80024F44074240521F0A001240D090444EA01
:1014D8000734090CA4B241EA081144EA022289B28D
:1014E80092B241F0100102830184018B21F4406122
:1014F8000904090C0183038B9BB243EA06239BB2C0
:101508000383018C21F001010904090C0184028B79
:10151800038C22F0F302120423F00A03120C1B04BA
:1015280042EA07121B0C43F0010392B21D4342EA40
:101538000C0CA0F818C00584038B23F00C031B04C3
:101548001B0C0383038B9BB21E430683BDE8F0018B
:101558007047038C0F89CE8823F001031B041B0CF2
:101568000384018B038C21F0F3010904090C23F097
:101578000A0341EA07111B0489B21B0C48F0010851
:101588000A4343EA080302830384038B23F00C0312
:101598001B041B0C0383038B9BB233430383038C11
:1015A80023F010031B041B0C0384028B038C22F40E
:1015B8004072120523F0A003120D1B0442EA073201
:1015C8001B0C43F0100392B243EA0515144304833D
:1015D8000584038B23F440631B041B0C0383038BD8
:1015E8009BB243EA0626B6B20683AFE7406B704764
:1015F800806B7047C06B7047006C7047038B23F09B
:101608000C031B041B0C0383038B9BB20B43038348
:10161800704700BF038B23F440631B041B0C038338
:10162800038B9BB243EA01239BB20383704700BF3D
:10163800838B23F00C031B041B0C8383838B9BB2CB
:101648000B438383704700BF838B23F440631B04E1
:101658001B0C8383838B9BB243EA01239BB2838356
:10166800704700BFB1F802C00B888A89F0B48F8830
:10167800CE880D894C894CEA03033B4333432B4303
:10168800234313439BB2A0F84430F0BC704700BF1B
:101698000023038043808380C38003814381838147
:1016A800704700BFB0F8443021B95B045B0CA0F868
:1016B800443070476FEA43436FEA53439BB2A0F844
:1016C80044307047838829B923F004031B041B0C9A
:1016D800838070479BB243F004038380704700BF48
:1016E800838829B923F001031B041B0C83807047EE
:1016F8009BB243F001038380704700BF83899BB28C
:101708001AB923EA01018181704719438181704721
:1017180081827047038A19420CBF0020012070475C
:10172800C94389B201827047038A828911420CBF7A
:101738000020012019420CBF002000F00100704772
:10174800C94389B2018270470A43A0F8482070470C
:1017580083899BB21AB923EA010181817047194331
:1017680081817047838829B923F008031B041B0C67
:10177800838070479BB243F008038380704700BFA3
:10178800038923F007031B041B0C0381704700BF68
:10179800038923F070031B041B0C0B43038103898B
:1017A8009BB243F007030381704700BF602930B440
:1017B800048C26D024F001042404240C0484058B12
:1017C800048C25F0F3052D0424F00A042D0C2404C0
:1017D80045F00105240C45EA031344F001049BB2CB
:1017E800224303830284038923F070031B041B0C28
:1017F8001943018103899BB243F00703038130BC7D
:10180800704724F010042404240C0484058B048CF1
:1018180025F4407524F0A0042D0524042D0D240C76
:1018280045F4807544F0100445EA033344EA021293
:101838009BB292B203830284D5E700BF10B4048937
:10184800E4B20C43144344EA0324A4B20481038998
:1018580023F077031B041B0C43F07703038110BCB0
:10186800704700BF10B40489E4B20C43144344EA3F
:101878000324A4B2048103899BB243F48043038107
:1018880010BC7047038923F070031B041B0C0B4327
:1018980003817047838823F070031B041B0C83802B
:1018A80083889BB20B438380704700BF038923F072
:1018B80007031B041B0C038103899BB20B430381A1
:1018C800704700BF038923F080031B041B0C0381AE
:1018D80003899BB20B430381704700BF10B404898E
:1018E800E4B20C43144344EA0324A4B2048110BCB8
:1018F800704700BF70B40589048B068C24F44074CB
:1019080026F0220624F00304360425F007052404F3
:10191800360C2D04240C16432D0C44F4807446EA2E
:101928000316294344F00104B6B2018104830684F6
:1019380070BC7047838829B923F080031B041B0CF3
:10194800838070479BB243F080038380704700BF59
:10195800A0F85010704700BF016846F2100200233B
:1019680021F00101C4F20202016003604360836058
:10197800C36003612123904243616BD046F2280380
:10198800C4F2020398426CD046F24003C4F2020348
:1019980098426ED046F25803C4F20203984270D0BF
:1019A80046F27003C4F20203984272D046F28803EA
:1019B800C4F20203984275D046F2A003C4F20203AF
:1019C80098423ED046F2B803C4F20203984273D05C
:1019D80046F21043C4F20203984275D046F22843F7
:1019E800C4F20203984276D046F24043C4F202039E
:1019F800984278D046F25843C4F2020398427AD00B
:101A080046F27043C4F2020398427CD046F28843FF
:101A1800C4F2020398427FD046F2A043C4F2020304
:101A2800984200F0838046F2B843C4F20203984219
:101A380001BF4FF4C843C4F202034FF03D52DA60CD
:101A480070474FF4C043C4F202030022C2F23D02C1
:101A5800DA6070474FF4C043C4F202033D229A6033
:101A680070474FF4C043C4F202034FF474629A60A3
:101A780070474FF4C043C4F202034FF474129A60E3
:101A880070474FF4C043C4F202034FF074629A6087
:101A980070474FF4C043C4F202033D22C2F2000271
:101AA800DA6070474FF4C043C4F202034FF4746223
:101AB800C2F20002DA6070474FF4C043C4F2020376
:101AC8004FF03D52DA6070474FF4C843C4F2020346
:101AD8003D229A6070474FF4C843C4F202034FF4A2
:101AE80074629A6070474FF4C843C4F202034FF41B
:101AF80074129A6070474FF4C843C4F202034FF05F
:101B080074629A6070474FF4C843C4F202033D22DE
:101B1800C2F20002DA6070474FF4C843C4F202030D
:101B28004FF47462C2F20002DA6070474FF4C8439F
:101B3800C4F202030022C2F23D02DA60704700BF1D
:101B48002DE9F00FD1F80CA0D1F80090D1F814804D
:101B5800D1F818C0CF6903680E6A4D6A8C6A4A6B5F
:101B6800D1F838B04AEA090949EA080986B049EAC9
:101B78000C0949EA0709019349EA06090B6B49EA86
:101B880005052C430493CB6A049D0593224348F230
:101B98003F08019C0B69CFF21C0804EA080842EAD6
:101BA8000B02029342EA08024B68896802600393B9
:101BB800059C436945EA040223F007031343436184
:101BC800029D039B45608360C16006B0BDE8F00FCD
:101BD800704700BF0023036043608360C3600361F4
:101BE80043618361C361036243628362C3620363C7
:101BF80043638363704700BF036819B923F0010387
:101C08000360704743F0010303607047036819B924
:101C180023F400430360704743F4004303607047B4
:101C2800036819B923F020030360704743F02003C9
:101C38000360704741607047406880B2704700BFDA
:101C4800036822B923F4002303600161704743F459
:101C58000023036001617047036819B923F48023E6
:101C68000360704743F48023036070470AB9C1607A
:101C780070470161704700BF0068C0F3C0407047FB
:101C8800006800F001007047406900F038007047B4
:101C980010B44FF4C84246F20F444FF4C043C4F2A4
:101CA8000202C4F20204C4F20203A04288BF13462F
:101CB8008A004CBF5B681B6821F0F02121F082117B
:101CC80019420CBF0020012010BC704710B44FF41B
:101CD800C84246F20F444FF4C043C4F20204C4F2AF
:101CE8000202C4F20203A04288BF134611F0005F4B
:101CF80021F0F02121F0821114BFD960996010BC45
:101D0800704700BF0B0604D543697AB143F08003DE
:101D18004361802906D0036801F01E011AB923EA3D
:101D280001010160704719430160704723F0800387
:101D38004361EEE770B44FF4C04246F20F454FF4EA
:101D4800C84421F0F023C4F20205C4F20204C4F22C
:101D5800020223F0C316A84288BF2246AEB100682B
:101D680000F01E0000EAD12089004CBF52681268BA
:101D780023F0821313420CBF0023012300280CBF59
:101D8800002003F0010070BC7047406900F080003B
:101D9800EAE700BF10B44FF4C84246F20F444FF4CC
:101DA800C043C4F20204C4F20202C4F20203A04215
:101DB80088BF134611F0005F21F0F02121F0821155
:101DC80014BFD960996010BC704700BF70B58AB065
:101DD800FEF7E0F9404A4FF01411A2F5826343F888
:101DE800041B9342FBD13D4B312203F570711A80DD
:101DF8005A809A80DA801A815A819A81DA8130333E
:101E08008B42F4D1FEF7FAF904200121FEF77EFD9A
:101E180002200121FEF7A4FD4FF400100121FEF776
:101E2800BBFD4FF400600024032302254FF4007625
:101E3800C4F2020008A98DF825308DF824500896C0
:101E48008DF82640FEF752FB4FF400602A46C4F294
:101E580002000921FEF7E2FB0AA94FF4806068231B
:101E680021F8144DC4F200000693ADF81C40ADF8FB
:101E78001640FEF747FF60234FF480600125C4F247
:101E880000006946ADF8003031230293ADF81040E8
:101E9800ADF81260ADF80C40ADF80E40ADF8025048
:101EA800ADF80440FFF7CCF84FF48060C4F20000AE
:101EB8004FF480712A46FFF74BFC4FF48060C4F260
:101EC80000002946FEF7CCFF4FF48060C4F2000002
:101ED8002946FFF7E7FBFEE7340400202400002032
:101EE800002103E00A4B5B584350043109480A4B70
:101EF80042189A42F6D3094A02E0002342F8043B0A
:101F0800074B9A42F9D3FEF779F9FFF75FFF70475D
:101F1800301F0008000000202400002024000020BA
:081F280034040020FEE7000074
:101F30000000000000000000010203040607080979
:101F4000007A030A000000000102030401020304F6
:041F5000060708096F
:0400000508001EE9E8
:00000001FF
